:100000000C945D010C94540E0C94850E0C94B60E59
:100010000C94E70E0C94180F0C94490F0C947A0F63
:100020000C94AB0F0C948A010C948A010C948A01F5
:100030000C948A010C948A010C948A010C948A0114
:100040000C948A010C948A010C948A010C948A0104
:100050000C948A010C948A010C948A010C9465100A
:100060000C948A010C944E090C942E0A0C948A016B
:100070000C948A010C948A010C948A010C948A01D4
:100080000C948A010C948A010C948A010C948A01C4
:100090000C9486090C947B0A0C948A010C948A01B6
:1000A0000C948A010C948A010C948A010C948A01A4
:1000B0000C948A010C948A010C948A010C948A0194
:1000C0000C948A010C948A010C948A010C94BE0948
:1000D0000C94C80A0C948A010C94F6090C94150B24
:1000E0000C948A01E304E804F204F704FC04030519
:1000F0000F05160522057205300529053005720524
:1001000037054005470554055B05620580258025B8
:1001100080250A0102000300030104010501060114
:1001200070696E673A3070696E673A2072756E63F7
:100130006F6E66696772636F6E66696720656E6170
:10014000626C65646368616E6E656C733A2073748B
:100150006174757370617573653A2070617573654C
:100160003A30707772313A30707772313A20707766
:1001700072303A30707772303A2077616B653A307E
:1001800077616B653A2073656E736E756D73656E1E
:1001900063686E2000002100240027002A002D0043
:1001A0003000330001010000040107010A010000D2
:1001B0002200250028002B002E003100340002010F
:1001C0000000050108010B010000200023002600AB
:1001D00029002C002F00320000010000030106015D
:1001E00009010505050507050808080802020202BD
:1001F0000A0A0808040404040101010101010101C3
:100200000303030303030303040707070C0C0C0C8D
:100210000C0C0C0C02020202060606060606060676
:100220000B0B0B0B0B0B0B0B010210202008081003
:100230002040102040800201020108040201010256
:10024000040810204080804020100804020180042F
:10025000020180402010080402010804020101028A
:100260000408102040800102040810204080000093
:10027000090A02080B0C0D07060304010000000028
:10028000000000000000000000000000000000006E
:100290000000000000000000000011100F0000002E
:1002A000000000000000000000000000000000004E
:1002B000000000008A08900C830811241FBECFEFB5
:1002C000D1E2DEBFCDBF00E00CBF12E0A0E0B2E0A3
:1002D000E6EAF5E200E00BBF02C007900D92AE34F3
:1002E000B107D9F71BBE16E0AEE4B2E001C01D9223
:1002F000A233B107E1F712E0C8EBD2E004C02297C5
:10030000FE010E948B12C43BD107C9F70E94470926
:100310000C94C6120C940000CF93DF93BC01823082
:10032000910510F462E070E0A0913006B0913106C2
:10033000ED01E0E0F0E040E050E021C088819981EB
:100340008617970769F48A819B81309719F0938308
:10035000828304C09093310680933006FE0134C03E
:100360006817790738F44115510519F08417950776
:1003700008F4AC01FE018A819B819C01E901209770
:10038000E9F641155105A9F1CA01861B970B04979F
:1003900008F4BA01E0E0F0E02AC08D919C91119739
:1003A00084179507F9F46417750781F412968D91F7
:1003B0009C911397309719F09383828304C0909394
:1003C000310680933006FD0132964CC0CA01861B6F
:1003D000970BFD01E80FF91F6193719302978D93BD
:1003E0009C9340C0FD01828193819C01D9011097AB
:1003F000A1F680912E0690912F06892B41F48091D1
:1004000003029091040290932F0680932E06409150
:100410000502509106024115510541F44DB75EB7F2
:100420008091010290910202481B590B20912E06E7
:1004300030912F06CA01821B930B8617970780F015
:10044000AB014E5F5F4F8417950750F0420F531F6B
:1004500050932F0640932E06F9016193719302C0C9
:10046000E0E0F0E0CF01DF91CF910895CF93DF93EB
:10047000009709F450C0EC0122971B821A82A091C8
:100480003006B0913106109709F140E050E0AC170A
:10049000BD0708F1BB83AA83FE0121913191E20FD0
:1004A000F31FAE17BF0779F48D919C911197280F18
:1004B000391F2E5F3F4F3983288312968D919C916F
:1004C00013979B838A834115510571F4D0933106AC
:1004D000C093300620C012968D919C911397AD0168
:1004E000009711F0DC01D3CFFA01D383C2832191AD
:1004F0003191E20FF31FCE17DF0769F488819981EC
:10050000280F391F2E5F3F4FFA01318320838A81E4
:100510009B8193838283DF91CF910895A0E0B0E027
:10052000E4E9F2E00C9491126C01009729F4CB01FC
:100530000E948C016C01C1C08EEF882E8FEF982E27
:100540008C0C9D1C8601060F171F0815190508F451
:10055000B2C0F401A081B181A617B707B8F0A530E9
:10056000B10508F4AAC0CD0104978617970708F4CF
:10057000A4C01297A61BB70BF801A193B193D401A5
:100580006D937C93CF010E94360297C07B01EA1ADB
:10059000FB0AEEEFFFEFEE0EFF1E36016A0E7B1E2A
:1005A000C0913006D091310644245524AA24BB249E
:1005B0004AC0C615D705E1F5488159814E155F053A
:1005C000B8F1CA0104978E159F05B0F41296A40FD6
:1005D000B51FF401B183A0832A813B8141145104EA
:1005E00031F0D20113963C932E93129766C030934C
:1005F00031062093300661C08A819B81F801938384
:100600008283425050404E195F0951834083411408
:10061000510431F0D20113961C930E93129704C02B
:100620001093310600933006F4017183608345C056
:1006300088819981A816B90608F45C012E018A8187
:100640009B819C01E901209709F0B3CF80912E0690
:1006500090912F0686159705E9F4A616B706D0F4F3
:1006600020910502309106022115310541F42DB784
:100670003EB78091010290910202281B390B0217AC
:100680001307C8F410932F0600932E06D4016D9320
:100690007C9313C0CB010E948C01EC01009759F0B0
:1006A000F40140815181B6010E946C03C6010E9491
:1006B00036026E0102C0CC24DD24C601CDB7DEB700
:1006C000E0E10C94AD12FB01DC0102C005900D923B
:1006D00041505040D8F70895FB01DC0102C0019061
:1006E0000D9241505040D8F70895FB01DC01019074
:1006F0000D920020E1F70895FC011682118210820C
:100700001382128281E08583148234872387708765
:100710006783528741870895CF93DF93EC01EF8180
:10072000F885848195810E9483048F81988561E397
:1007300045E050E00E947F05EF81F8858481958136
:100740000E9483048F81988561E341E050E00E941C
:100750007F058F81988561E340E150E00E947F052D
:10076000EF81F885848195810E9483048F8198852B
:1007700061E349E050E00E947F058F81988561E345
:1007800042E150E00E947F05EF81F88529853A8596
:10079000255D3F4F8681978168EC48E00E94BC054B
:1007A000EF81F885848195810E9483048F819885EB
:1007B00061E34AE050E00E947F05EF81F885848183
:1007C00095810E9483048F81988561E34CE050E01D
:1007D0000E947F05EF81F885848195810E948304C2
:1007E0000E9495050B9708F4FFCFEF81F88584816F
:1007F00095810E948304DF91CF9108950F931F93F9
:100800008C01FC016081718187ED95E042E050E050
:100810000E94AE0DF80115821F910F9108951F934C
:10082000CF93DF93EC010E948C0311E08091840050
:10083000909185008D549D4130F480918400909179
:10084000850097FF02C01E8349C020E030E06B8521
:100850007C85F901EE0FFF1FE60FF71F49855A85CA
:100860002F5D3F4FD901AA0FBB1FA40FB51F8D915C
:100870009C9191838083205230402830310539F794
:100880004E5A5F4FFA018081FB01808BAB85BC859E
:10089000E985FA85ED5AFF4F808151968C93AB859F
:1008A000BC85E985FA85EC5AFF4F808152968C937E
:1008B000AB85BC85E985FA85EB5AFF4F808153965D
:1008C0008C93AB85BC85E985FA85EA5AFF4F808118
:1008D00054968C938B859C85998388838E818823FD
:1008E00039F0CE010E94FE03109285001092840020
:1008F0001E829CCFFC0110924F0210924E02118278
:1009000081E080830895FC01818180838F5F8183F2
:10091000873011F48FEF81830895FC01685D608357
:100920008EEF8183FFCFFC01118210827783668373
:10093000538342833583248308951F93CF93DF939A
:10094000EC01162F87ED95E0BA0142E050E00E94DD
:10095000AE0D8A819B810E94B706EA81FB81858961
:100960008117C1F00E94AD10EA81FB812789308D8B
:10097000418D528D621B730B840B950B695E734026
:100980008040904030F0EC81FD81CF0160810E9479
:100990008D04FFCFDF91CF911F910895CF93DF9307
:1009A000EC019B01DB018C9190E0FC013197E4317B
:1009B000F10508F097C0EE58FF4FEE0FFF1F0590AE
:1009C000F491E02D19944E815F8142595F4F5CC0D4
:1009D000EE81FF81E758FF4FDB0111968C918083F8
:1009E00035975CC04E815F814E595F4F09C0EE81E3
:1009F000FF81E359FF4F0BC04E815F814A5A5F4F21
:100A0000CE0162E04EC0EE81FF81EF59FF4FD90168
:100A100011968C9180833597CE0162E041C04E8162
:100A20005F81415B5F4FCE0161E058C0EE81FF8185
:100A3000E25BFF4FDB0111968C9180833697CE01EC
:100A400061E04BC04E815F814E5B5F4FCE0163E042
:100A500028C04E815F814F5C5F4FCE0166E03EC093
:100A60004E815F81465D5F4FCE0167E037C04E81AA
:100A70005F81405E5F4FCE0161E023E030E030C037
:100A80004E815F814C5E5F4FCE0161E00AC0EE8116
:100A9000FF817A96DB0111968C918683CE0161E00D
:100AA000AF0126E030E01CC04E815F814D5D5F4F9D
:100AB000CE0165E013C04E815F8146585F4FCE0185
:100AC00069E00CC0EE81FF81E957FF4FDB01119611
:100AD0008C9180833697CE016AE0AF0127E030E049
:100AE0000E949D04DF91CF910895FA01613331F4A2
:100AF0006081772767FD70950E94CE0408950E945B
:100B000075050895F999FECF72BD61BDF89A80B55B
:100B10000895F999FECF1FBA72BD61BD40BD0FB6F1
:100B2000F894FA9AF99A0FBE0895DF93CF930F9233
:100B30000F92CDB7DEB79E0121533640C9010F9009
:100B40000F90CF91DF9108950F931F93CF93DF9371
:100B5000062F142FE90109C0602F0F5F499180E52E
:100B600092E070E00E94890511501123A9F7DF91EE
:100B7000CF911F910F9108950E94A40508950F939E
:100B80001F93CF93DF93062F142FE90109C0602F25
:100B90000F5F80E592E070E00E948205899311501A
:100BA0001123A9F7DF91CF911F910F910895CF9352
:100BB000DF93EC0180E592E060E070E00E94820546
:100BC000863641F480E592E061E070E00E948205A3
:100BD000833741F0CE016CE071E048E850E00E94BC
:100BE000630306C0CE0162E048E89E010E94BF0593
:100BF000DF91CF910895CF93DF93EC018C819D819C
:100C0000AE81BF810097A105B10521F01C821D8234
:100C10001E821F820E94AD10688379838A839B8322
:100C2000DF91CF9108950E94FB050895FC01108289
:100C30007783668312821182178A108E118E128E2C
:100C4000158A158213821482168A0895EF92FF92F4
:100C50000F931F93CF93DF93EC012881223009F18A
:100C6000233030F42223C1F0213009F079C009C0CB
:100C7000243009F447C0243090F1253009F070C0C9
:100C800047C06B3209F06BC082E0888319828DE027
:100C90008A831C821B8264C06B3209F061C081E0D0
:100CA00035C09B81960F9B838C81890F8C838981B2
:100CB000FE01E80FF11D60878F5F89839A81891794
:100CC00009F04EC083E08883198298859A838985CC
:100CD0008D8B8C898D839E3008F442C040C09B81EF
:100CE000960F9B838C81890F8C838981FE01E80F8D
:100CF000F11D60878F5F89839A81891789F52F5F3E
:100D000028832EC08B81681751F585E0888328C021
:100D10008C81681721F588E0E82EF12CEC0EFD1E81
:100D200010E005E012C09E3F19F08D89981761F41C
:100D30001196ED91FC91129713968D919C911497B9
:100D40006D894D81970119951F5F109FC001112476
:100D5000AE81BF81A80FB91F9C919F3F21F71882D8
:100D6000DF91CF911F910F91FF90EF9008951F9306
:100D7000CF93DF93EC0187ED95E00E94E80B182FED
:100D8000882391F41E8A0E94AD102F89388D498DD9
:100D90005A8D621B730B840B950B695E7340804008
:100DA000904090F0188210C087ED95E00E94190CD9
:100DB000682FCE010E9426061150B1F70E94AD1097
:100DC0006F8B788F898F9A8FDF91CF911F910895C4
:100DD000FC01718360830895FB01DC01DF96808153
:100DE00091818D939C9308950F931F93CF93DF93DD
:100DF000EC01162F072F0E949505479708F4FFCFA7
:100E0000DE01AF5BBF4F812F902F9C01F90186E17E
:100E100001900D928150E1F7DF91CF911F910F91D9
:100E20000895FF920F931F93CF93DF93EC01F62E5B
:100E3000122F032F0E9495050B9708F4FFCFE12F87
:100E4000F02F9E012E5F3F4FAF018DE0DA010D9034
:100E5000AD01D9010D929D018150C1F78F01035F52
:100E60001F4FB6E0FB1609F452C0BF1590F0E2E048
:100E7000FE1669F1EF1528F0F1E0FF1609F075C0D4
:100E80001FC083E0F81649F1A5E0FA1609F06DC01D
:100E900035C0B9E0FB1609F465C0BF1540F0E7E0C6
:100EA000FE16D1F1F8E0FF1609F05FC03FC08AE0FE
:100EB000F81609F44EC0ABE0FA1609F056C040C06F
:100EC000F80180818F87882309F04FC0FFCFD801B8
:100ED0008D919C91998B888B48C0DE015296F801C8
:100EE0008DE001900D928150E1F78B898F3F09F4DD
:100EF000888B8E898436C8F5898B37C0DE019B9636
:100F0000F80180E101900D928150E1F72EC08585B6
:100F100096859AA789A729C00E949505039708F48A
:100F2000FFCFCE01B8010E94EC061FC00E949505BC
:100F3000479708F4FFCFCE01B8010E94F40615C010
:100F4000DE015F96F8018AE001900D928150E1F791
:100F50000CC0DE01DB96F80183E001900D92815018
:100F6000E1F703C0F80180818EAFDF91CF911F912F
:100F70000F91FF9008950E9411070895489660E030
:100F800072E00E9445100895FC01168211821082C1
:100F90001382128281E085831482178271876087B1
:100FA0000895DC0117962C911797822F86958695C8
:100FB000869590E01896ED91FC911997E80FF91F2E
:100FC00033E0880F991F3A95E1F7281B81E090E004
:100FD00002C0880F991F2A95E2F72089282B208BC1
:100FE00020E030E04AE050E018966D917C9119972E
:100FF000F901EE0FFF1FE60FF71F80819181840F2B
:10100000951F918380832F5F3F4F465F5F4F28304E
:10101000310551F711967C936E9317968C91179723
:101020008F5F17968C931797883218F017961C923B
:10103000179712968D919C911397019613969C93F6
:101040008E93129781E015968C9308950F931F93BA
:101050008C01FC016081718188EB95E045E150E0F5
:101060000E94AE0DF80115821F910F9108951F93F4
:10107000CF93DF93EC0111E0809184009091850083
:101080008D549D4130F4809184009091850097FFAC
:101090000DC01E838E81882339F0CE010E94260860
:1010A00010928500109284001E82E6CFCE010E942D
:1010B000D107F0CF81309105E1F46F5F7F4F11F5DB
:1010C0008AE592E00E947A0484EE92E00E94BE07D4
:1010D0008BE393E067E072E00E94160686E593E0FA
:1010E0006CE572E04BE353E02AE532E00E949304A2
:1010F0000895892B39F46F5F7F4F21F48CEF92E0D4
:101100000E945F10089580E090E06FEF7FEF0E94F3
:101110005A08089581E090E06FEF7FEF0E945A082F
:1011200008950F931F938C01FC014081518160E071
:1011300070E088EB95E00E94620BF8018085618584
:101140000E947611F801828563850E947611F8016C
:10115000848565850E947611F801868567850E94E1
:101160007611F801808961890E947611F8018289DF
:1011700063890E947611F8018681809375038781C7
:10118000809376031F910F910895809177038823B0
:1011900039F080917303909174030E943708089589
:1011A00080917803882339F08091730390917403C0
:1011B0000E940F040895FFCF0F931F93DF93CF93E7
:1011C000CDB7DEB767970FB6F894DEBF0FBECDBFC1
:1011D000F8948CE592E00E94D7058CE592E00E949D
:1011E000910884EE92E06BE373E00E94E80683E0EE
:1011F00060E070E041E050E00E94D80D68E873E1E3
:1012000080E090E00E94BB1082E00E9410120197E3
:1012100081F48E010F5F1F4FC8016EE573E00E94DD
:10122000C407109374030093730381E080937703E2
:101230001AC082E00E941012892BA1F48E01055F72
:101240001F4FC80166E573E044EE52E02EE533E03F
:101250000E947C03109374030093730381E08093D6
:10126000780301C0FFCF86E0809381000E9495053E
:10127000892B09F4FFCF789467960FB6F894DEBFF8
:101280000FBECDBFCF91DF911F910F9108950E94A6
:1012900014110E94DC080E94C508FDCF1F920F9216
:1012A0000FB60F920BB60F9211242F933F934F93CB
:1012B0008F939F93EF93FF934091C6002091B903C2
:1012C0003091BA032F5F3F4F2F7330708091BB0373
:1012D0009091BC032817390759F0E091B903F091B8
:1012E000BA03E758FC4F40833093BA032093B90305
:1012F000FF91EF919F918F914F913F912F910F907F
:101300000BBE0F900FBE0F901F9018951F920F925B
:101310000FB60F920BB60F9211242F933F934F935A
:101320008F939F93EF93FF934091CE0020914104C0
:10133000309142042F5F3F4F2F73307080914304F0
:10134000909144042817390759F0E0914104F09135
:101350004204EF5FFB4F40833093420420934104EB
:10136000FF91EF919F918F914F913F912F910F900E
:101370000BBE0F900FBE0F901F9018951F920F92EB
:101380000FB60F920BB60F9211242F933F934F93EA
:101390008F939F93EF93FF934091D6002091C904C0
:1013A0003091CA042F5F3F4F2F7330708091CB0470
:1013B0009091CC042817390759F0E091C904F091B5
:1013C000CA04E757FB4F40833093CA042093C904F3
:1013D000FF91EF919F918F914F913F912F910F909E
:1013E0000BBE0F900FBE0F901F9018951F920F927B
:1013F0000FB60F920BB60F9211242F933F934F937A
:101400008F939F93EF93FF93409136012091510565
:10141000309152052F5F3F4F2F73307080915305ED
:10142000909154052817390759F0E0915105F09132
:101430005205EF5EFA4F40833093520520935105D9
:10144000FF91EF919F918F914F913F912F910F902D
:101450000BBE0F900FBE0F901F9018951F920F920A
:101460000FB60F920BB60F9211242F933F934F9309
:101470005F936F937F938F939F93AF93BF93EF93FC
:10148000FF932091FD033091FE038091FF03909123
:1014900000042817390731F48091C1008F7D8093B3
:1014A000C10016C0E091FF03F0910004E354FC4F2B
:1014B00040818091FF0390910004019660E470E008
:1014C0000E944012909300048093FF034093C60053
:1014D000FF91EF91BF91AF919F918F917F916F910C
:1014E0005F914F913F912F910F900BBE0F900FBEC8
:1014F0000F901F9018951F920F920FB60F920BB678
:101500000F9211242F933F934F935F936F937F9389
:101510008F939F93AF93BF93EF93FF932091850495
:1015200030918604809187049091880428173907A8
:1015300031F48091C9008F7D8093C90016C0E0917D
:101540008704F0918804EB5BFB4F40818091870416
:1015500090918804019660E470E00E94401290939C
:101560008804809387044093CE00FF91EF91BF9150
:10157000AF919F918F917F916F915F914F913F912B
:101580002F910F900BBE0F900FBE0F901F901895CC
:101590001F920F920FB60F920BB60F9211242F933A
:1015A0003F934F935F936F937F938F939F93AF93EB
:1015B000BF93EF93FF9320910D0530910E0580911D
:1015C0000F05909110052817390731F48091D1004B
:1015D0008F7D8093D10016C0E0910F05F09110052A
:1015E000E353FB4F408180910F05909110050196C8
:1015F00060E470E00E9440129093100580930F0504
:101600004093D600FF91EF91BF91AF919F918F9141
:101610007F916F915F914F913F912F910F900BBEF2
:101620000F900FBE0F901F9018951F920F920FB63C
:101630000F920BB60F9211242F933F934F935F930A
:101640006F937F938F939F93AF93BF93EF93FF938A
:101650002091950530919605809197059091980578
:101660002817390731F4809131018F7D8093310142
:1016700016C0E0919705F0919805EB5AFA4F40811A
:101680008091970590919805019660E470E00E9422
:101690004012909398058093970540933601FF91EF
:1016A000EF91BF91AF919F918F917F916F915F91DA
:1016B0004F913F912F910F900BBE0F900FBE0F9047
:1016C0001F901895AF92BF92DF92EF92FF920F9307
:1016D0001F93CF93DF93EC017A018B01DD2440301F
:1016E00081EE580780E0680780E0780711F0DD247C
:1016F000D39491E0A92EB12CEC89FD89DD2069F00D
:10170000C5010E8C02C0880F991F0A94E2F78083EE
:1017100060E079E08DE390E005C0108260E874E855
:101720008EE190E0A80197010E94531221503040B1
:1017300040405040569547953795279580E1203099
:10174000380720F0DD2011F0DD24D6CFE889F989B3
:101750003083EA89FB892083EE89FF89408121E07B
:1017600030E0C9010A8C02C0880F991F0A94E2F781
:10177000482B4083EE89FF894081C9010B8C02C050
:10178000880F991F0A94E2F7482B4083EE89FF895E
:101790004081C9010C8C02C0880F991F0A94E2F79E
:1017A000482B4083EE89FF8980810D8C02C0220F77
:1017B000331F0A94E2F7209528232083DF91CF91ED
:1017C0001F910F91FF90EF90DF90BF90AF90089521
:1017D000DC011C96ED91FC911D97E05CFF4F21917F
:1017E000319180819181281B390B2F733070C90191
:1017F0000895DC011C96ED91FC911D97E05CFF4F74
:1018000020813181E054F040DF01AE5BBF4F8D910C
:101810009C9111972817390719F42FEF3FEF07C054
:101820008D919C91E80FF91F8081282F30E0C9012C
:101830000895DC011C96ED91FC911D97E05CFF4F33
:1018400020813181E054F040DF01AE5BBF4F8D91CC
:101850009C9111972817390719F42FEF3FEF10C00B
:101860008D919C911197E80FF91F20818D919C918A
:10187000119701968F73907011969C938E9330E020
:10188000C9010895FC0186859785DC01A05CBF4FE6
:10189000FC01EE5BFF4F2D913C911197808191816E
:1018A00028173907C1F70895CF93DF93EC01462F2E
:1018B000EE85FF85E05CFF4F80819181E054F04030
:1018C000019660E470E00E9440129C01DF01AE5B73
:1018D000BF4F8D919C91119728173907D1F3E05C88
:1018E000FF4F80819181E054F040E80FF91F408361
:1018F000EE85FF85E05CFF4F31832083EE89FF8911
:10190000208181E090E00D8C02C0880F991F0A941D
:10191000E2F7282B208381E090E0DF91CF910895BA
:101920001F9310929C0510929B0528EE33E040E037
:1019300050E020939D0530939E0540939F05509362
:10194000A00562E472E070939A056093990589E7B7
:1019500093E09093A6058093A5058DEB93E090937B
:10196000A8058093A70585EC90E09093AA05809345
:10197000A90584EC90E09093AC058093AB0580ECD6
:1019800090E09093AE058093AD0581EC90E090934C
:10199000B0058093AF0586EC90E09093B2058093FC
:1019A000B10514E01093B305B3E0B093B405A7E01C
:1019B000A093B505F5E0F093B605E1E0E093B70537
:1019C0001092BB051092BA052093BC053093BD055B
:1019D0004093BE055093BF057093B9056093B80559
:1019E00081E094E09093C5058093C40585E494E07C
:1019F0009093C7058093C6058DEC90E09093C90540
:101A00008093C8058CEC90E09093CB058093CA0539
:101A100088EC90E09093CD058093CC0589EC90E024
:101A20009093CF058093CE058EEC90E09093D105F6
:101A30008093D0051093D205B093D305A093D4051D
:101A4000F093D505E093D6051092DA051092D905EA
:101A50002093DB053093DC054093DD055093DE05D4
:101A60007093D8056093D70589E894E09093E405D6
:101A70008093E3058DEC94E09093E6058093E50573
:101A800085ED90E09093E8058093E70584ED90E084
:101A90009093EA058093E90580ED90E09093EC0542
:101AA0008093EB0581ED90E09093EE058093ED053A
:101AB00086ED90E09093F0058093EF051093F1058B
:101AC000B093F205A093F305F093F405E093F505C8
:101AD0001092F9051092F8052093FA053093FB0552
:101AE0004093FC055093FD057093F7056093F60550
:101AF00081E195E0909303068093020685E595E0E9
:101B0000909305068093040685E391E09093070681
:101B10008093060684E391E090930906809308067B
:101B200080E391E090930B0680930A0681E391E0B5
:101B300090930D0680930C0686E391E090930F0638
:101B400080930E0610931006B0931106A093120610
:101B5000F0931306E09314061F910895CF92DF923D
:101B6000EF92FF920F931F93CF93DF937C016B0152
:101B70008A01C0E0D0E00FC0D6016D916D01D701A0
:101B8000ED91FC910190F081E02DC7011995C80FEE
:101B9000D91F015010400115110571F7CE01DF91D9
:101BA000CF911F910F91FF90EF90DF90CF9008950C
:101BB000883008F078C0E82FF0E0EE0FFF1FEB5EF2
:101BC000F94F718360838330D9F0843030F48130F1
:101BD00009F444C0823060F439C0853051F1853059
:101BE000D8F0863009F446C0873009F05CC04FC099
:101BF000809169008C7F842B80936900E89A089516
:101C000080916900440F551F440F551F837F842B1B
:101C100080936900E99A08958091690074E0440F07
:101C2000551F7A95E1F78F7C842B80936900EA9A9F
:101C300008958091690066E0440F551F6A95E1F7A9
:101C40008F73842B80936900EB9A089580916A00CA
:101C50008C7F842B80936A00EC9A089580916A00AF
:101C6000440F551F440F551F837F842B80936A00B8
:101C7000ED9A089580916A0024E0440F551F2A953B
:101C8000E1F78F7C842B80936A00EE9A089580910F
:101C90006A0096E0440F551F9A95E1F78F73842BE5
:101CA00080936A00EF9A08951F920F920FB60F92D9
:101CB0000BB60F9211242F933F934F935F936F9323
:101CC0007F938F939F93AF93BF93EF93FF938091F5
:101CD000190690911A06892B29F0E0911906F091C6
:101CE0001A061995FF91EF91BF91AF919F918F9136
:101CF0007F916F915F914F913F912F910F900BBE0C
:101D00000F900FBE0F901F9018951F920F920FB655
:101D10000F920BB60F9211242F933F934F935F9323
:101D20006F937F938F939F93AF93BF93EF93FF93A3
:101D300080911B0690911C06892B29F0E0911B06CF
:101D4000F0911C061995FF91EF91BF91AF919F9172
:101D50008F917F916F915F914F913F912F910F9054
:101D60000BBE0F900FBE0F901F9018951F920F92F1
:101D70000FB60F920BB60F9211242F933F934F93F0
:101D80005F936F937F938F939F93AF93BF93EF93E3
:101D9000FF9380911D0690911E06892B29F0E091FA
:101DA0001D06F0911E061995FF91EF91BF91AF911D
:101DB0009F918F917F916F915F914F913F912F9163
:101DC0000F900BBE0F900FBE0F901F9018951F9293
:101DD0000F920FB60F920BB60F9211242F933F93D1
:101DE0004F935F936F937F938F939F93AF93BF9323
:101DF000EF93FF9380911F0690912006892B29F085
:101E0000E0911F06F09120061995FF91EF91BF9187
:101E1000AF919F918F917F916F915F914F913F9182
:101E20002F910F900BBE0F900FBE0F901F90189523
:101E30001F920F920FB60F920BB60F9211242F9391
:101E40003F934F935F936F937F938F939F93AF9342
:101E5000BF93EF93FF938091150690911606892BFF
:101E600029F0E0911506F09116061995FF91EF9172
:101E7000BF91AF919F918F917F916F915F914F91A2
:101E80003F912F910F900BBE0F900FBE0F901F90A0
:101E900018951F920F920FB60F920BB60F92112446
:101EA0002F933F934F935F936F937F938F939F9362
:101EB000AF93BF93EF93FF9380911706909118060D
:101EC000892B29F0E0911706F09118061995FF91DA
:101ED000EF91BF91AF919F918F917F916F915F91A2
:101EE0004F913F912F910F900BBE0F900FBE0F900F
:101EF0001F9018951F920F920FB60F920BB60F926C
:101F000011242F933F934F935F936F937F938F93FE
:101F10009F93AF93BF93EF93FF938091210690918E
:101F20002206892B29F0E0912106F09122061995CD
:101F3000FF91EF91BF91AF919F918F917F916F91A1
:101F40005F914F913F912F910F900BBE0F900FBE5D
:101F50000F901F9018951F920F920FB60F920BB60D
:101F60000F9211242F933F934F935F936F937F931F
:101F70008F939F93AF93BF93EF93FF93809123062B
:101F800090912406892B29F0E0912306F0912406F4
:101F90001995FF91EF91BF91AF919F918F917F9193
:101FA0006F915F914F913F912F910F900BBE0F90CA
:101FB0000FBE0F901F9018950F931F93CF93DF9331
:101FC000EC018B016F5F7F4F888199810E948E02A7
:101FD000009711F480E005C0998388831B830A83EE
:101FE00081E0DF91CF911F910F910895CF93DF93FF
:101FF000EC0188819981892B29F08A819B81861740
:10200000970760F4CE010E94DC0F882341F08C8199
:102010009D81892B19F4E881F981108281E0DF919B
:10202000CF910895CF93DF93EC0188819981009738
:1020300011F00E943602198218821D821C821B82B6
:102040001A82DF91CF910895EF92FF920F931F9321
:10205000CF93DF93EC017B018A01BA010E94F60F56
:10206000882321F4CE010E94121007C01D830C8327
:1020700088819981B7010E947503CE01DF91CF91CC
:102080001F910F91FF90EF900895CF93DF93EC0194
:10209000198218821B821A821D821C821E8261157F
:1020A000710551F0DB010D900020E9F71197A61B97
:1020B000B70BAD010E942410DF91CF910895FC0170
:1020C000808191810E94360208951F920F920FB66F
:1020D0000F9211242F933F938F939F93AF93BF93AE
:1020E0008091290690912A06A0912B06B0912C068A
:1020F00030912D060196A11DB11D232F2D5F2D3787
:1021000020F02D570196A11DB11D20932D0680931F
:10211000290690932A06A0932B06B0932C06809153
:10212000250690912606A0912706B09128060196D3
:10213000A11DB11D8093250690932606A093270626
:10214000B0932806BF91AF919F918F913F912F91AE
:102150000F900FBE0F901F9018958FB7F894209195
:10216000290630912A0640912B0650912C068FBFEC
:10217000B901CA0108959B01AC017FB7F894809121
:10218000250690912606A0912706B091280666B5EF
:10219000A89B05C06F3F19F00196A11DB11D7FBF1F
:1021A000BA2FA92F982F8827860F911DA11DB11D29
:1021B00062E0880F991FAA1FBB1F6A95D1F7BC0167
:1021C0002DC0FFB7F8948091250690912606A09126
:1021D0002706B0912806E6B5A89B05C0EF3F19F089
:1021E0000196A11DB11DFFBFBA2FA92F982F8827D7
:1021F0008E0F911DA11DB11DE2E0880F991FAA1F2E
:10220000BB1FEA95D1F7861B970B885E9340C8F2F7
:10221000215030404040504068517C4F21153105DD
:102220004105510571F60895789484B5826084BDA6
:1022300084B5816084BD85B5826085BD85B58160CA
:1022400085BDEEE6F0E0808181608083E1E8F0E02A
:102250001082808182608083808181608083E0E859
:10226000F0E0808181608083E1EBF0E08081846038
:102270008083E0EBF0E0808181608083E1E9F0E041
:10228000808182608083808181608083E0E9F0E0EA
:10229000808181608083E1EAF0E0808182608083D8
:1022A000808181608083E0EAF0E0808181608083CA
:1022B000E1E2F1E0808182608083808181608083BF
:1022C000E0E2F1E0808181608083EAE7F0E08081F4
:1022D000846080838081826080838081816080834C
:1022E0008081806880831092C1000895482F50E05B
:1022F000CA01885D9D4FFC0124914E515E4FFA0149
:1023000084918823C1F0E82FF0E0EE0FFF1FEC5618
:10231000FE4FA591B491662341F49FB7F8948C9138
:10232000209582238C939FBF08959FB7F8948C913A
:10233000822B8C939FBF0895893009F449C08A305D
:10234000A0F4843051F1853040F4823079F183304B
:1023500000F5813009F063C026C0873079F18830FC
:1023600098F5863009F05BC025C08D3009F442C075
:102370008E3028F48B30B1F18C30C0F52DC0803117
:1023800009F442C0813109F445C08F3009F047C0DB
:1023900037C0809180008F7703C0809180008F7D4F
:1023A00080938000089584B58F7702C084B58F7DB7
:1023B00084BD08958091B0008F7703C08091B000F4
:1023C0008F7D8093B0000895809190008F7707C033
:1023D000809190008F7D03C080919000877F8093D3
:1023E000900008958091A0008F7707C08091A00091
:1023F0008F7D03C08091A000877F8093A000089507
:10240000809120018F7703C0809120018F7D809380
:102410002001089580912001877F809320010895F5
:102420000F931F93482F50E0CA0182599D4FFC0122
:102430002491CA01885D9D4FFC0104914E515E4F6D
:10244000FA011491112319F420E030E015C0222381
:1024500019F0822F0E949C11812F90E0880F991F04
:1024600088539E4FFC01A591B4918C9120E030E0FF
:10247000802311F021E030E0C9011F910F910895F0
:1024800097FB092E07260AD077FD04D02ED006D060
:1024900000201AF4709561957F4F0895F6F7909596
:1024A00081959F4F0895A1E21A2EAA1BBB1BFD0127
:1024B0000DC0AA1FBB1FEE1FFF1FA217B307E40723
:1024C000F50720F0A21BB30BE40BF50B661F771F7B
:1024D000881F991F1A9469F760957095809590955B
:1024E0009B01AC01BD01CF010895AA1BBB1B51E1AB
:1024F00007C0AA1FBB1FA617B70710F0A61BB70B74
:10250000881F991F5A95A9F780959095BC01CD0118
:102510000895EE0FFF1F0590F491E02D19942F926E
:102520003F924F925F926F927F928F929F92AF9263
:10253000BF92CF92DF92EF92FF920F931F93CF93B0
:10254000DF93CDB7DEB7CA1BDB0B0FB6F894DEBF47
:102550000FBECDBF19942A88398848885F846E845D
:102560007D848C849B84AA84B984C884DF80EE80B7
:10257000FD800C811B81AA81B981CE0FD11D0FB6C0
:10258000F894DEBF0FBECDBFED01089512E0C8EB99
:10259000D2E004C0FE010E948B122296CA3BD107F2
:0625A000C9F7F894FFCF1B
:1025A60000200032060000FE1306510201BB07E4BC
:1025B6000202BB07E40203BB07E40205BB07E40211
:1025C60006BB07E40207BB07E40208BB07E40209EF
:1025D600BB07E4020BBB07E4020ABB07E4020000E8
:0E25E6000000540CAE0DE80B190CF90B420C62
:00000001FF
