:1000000090C00000AAC00000A8C00000A6C0000068
:10001000A4C00000A2C00000A0C000009EC000005C
:100020009CC000009AC0000098C000005DC700009E
:1000300094C0000092C0000090C000008EC000007C
:100040008CC000008AC0000088C0000086C000008C
:1000500084C0000082C0000080C00000A9C1000070
:100060007CC000007AC0000078C0000076C00000AC
:1000700074C0000020034C005500460041002000E1
:100080004D006F007500730065002000440065009E
:100090006D006F00000018034400650061006E00F1
:1000A0002000430061006D006500720061000000E7
:1000B0000403090409022200010100C032090400FE
:1000C000000103010200092111010001223A000789
:1000D0000581030800051201100100000008EB0370
:1000E000412001000102000105010902A1010901ED
:1000F000A1000509190129031500250195037501C2
:10010000810295017505810105010930093116FF4C
:10011000FF26010036FFFF460100950275088106A3
:10012000C0C011241FBECFEFD2E0DEBFCDBF11E0B3
:10013000A0E0B1E0ECE8F3E102C005900D92A0313F
:10014000B107D9F721E0A0E1B1E001C01D92A83AC2
:10015000B207E1F783D00C94C40952CF292F33277B
:1001600023303105C9F044F42130310509F439C098
:100170002230310539F40BC02132310541F12232F0
:10018000310551F120E030E080E090E033C022E220
:1001900030E084EB90E02EC099278130910559F032
:1001A0008230910571F0892B09F5E0EBF0E02491A4
:1001B00030E0CF011FC0E6E9F0E0249130E0CF014C
:1001C00019C0E4E7F0E0249130E0CF0113C029E04A
:1001D00030E086EC90E00EC02AE330E088EE90E05C
:1001E00009C022E130E086ED90E004C020E030E07C
:1001F00080E090E0FA0191838083822F932F08950D
:10020000CF93DF9384B7877F84BF28E10FB6F8943C
:1002100020936000109260000FBE87E690E09093FC
:10022000CD008093CC0086E08093CA001092C80075
:10023000C9ECD0E02883539A5A9A90E080E80FB630
:10024000F89480936100909361000FBE3ED684E0E5
:1002500085BD88E98883DF91CF910895CF93DF939F
:1002600000D01F92CDB7DEB7CBDF2FB7F89486E171
:1002700091E09093970180939601909399018093D8
:1002800098012FBF78940AE911E06E0124E0C20EB4
:10029000D11C0F2EF8E9EF2EF1E0FF2EF02D4C01CE
:1002A0000F2EF3E1AF2EF1E0BF2EF02D0F2EF4E173
:1002B0006F2EF1E07F2EF02D0F2EF5E14F2EF1E0A5
:1002C0005F2EF02D9FB7F894D8018C919FBF84309A
:1002D000D0F1AE014F5F5F4FD701ED91FC911197C7
:1002E0008191ED93FC93E659F14019F4F701918265
:1002F00080829FB7F894D8012C9121502C939FBFF6
:10030000FA018193AF01EC15FD0531F7D7018D910D
:100310009C91119701968D939C938659914019F465
:10032000F701918280828FB7F894D8019C91915007
:100330009C938FBF8981F50180838A81D3018C933F
:100340008B81F201808380E091E0D6D1E5D7BACFEE
:100350000895089580E091E0B9D1E2EEF0E0808167
:1003600084608083089580E091E05BC080910E01FD
:1003700090910F01009729F0019790930F018093BE
:100380000E0108950F931F93809113019091140112
:10039000A0911501F90180839183A28383E090E00D
:1003A000F8019183808380E01F910F910895089553
:1003B0001F920F920FB60F9211242F938F939F933A
:1003C000AF93BF93EF93FF939091CE0080919F01E5
:1003D0008430D9F4E6E9F1E0A081B1819C93808179
:1003E00091810196918380838E179F0731F486E176
:1003F00091E090939701809396018FB7F894EAE982
:10040000F1E090819F5F90838FBFFF91EF91BF914B
:10041000AF919F918F912F910F900FBE0F901F90D2
:1004200018953F924F925F926F927F928F929F9218
:10043000AF92BF92CF92DF92EF92FF920F931F93F2
:10044000CF93DF9300D01F92CDB7DEB76C01EDB62E
:10045000FEB68091E80083FF1FC1F601808190E025
:100460002091A4013091A5012817390709F014C182
:100470008091A101833009F4ACC030F4813071F077
:10048000823009F009C1EDC08A3009F4CEC08B304A
:1004900009F4B7C0893009F0FFC059C08091A001AC
:1004A000813A09F0F9C08DB69EB61A821982E2EA45
:1004B000F1E0808111818B83F60140858DB79EB775
:1004C000841B91090FB6F8949EBF0FBE8DBFADB6C9
:1004D000BEB6E1E0F0E0AE0EBF1E6A2C7B2C50E011
:1004E00060E070E08A2D9B2D48D7412F41508E014E
:1004F0000F5F1F4F2A2D3B2DBE016D5F7F4FC60141
:1005000041DFF601268137812115310539F040851B
:1005100050E06A2D7B2D822F932F26D71092E90071
:1005200008EE10E0F8018081877F808369817A81FD
:10053000862D972D12D2F80180818B778083882DAC
:10054000992D0FB6F8949EBF0FBE8DBFA5C08091A8
:10055000A001813209F0A0C05DB66EB6A090A601E0
:10056000B090A701E2EAF1E0708041808DB79EB7BC
:100570008A199B090FB6F8949EBF0FBE8DBF8DB62A
:100580009EB6E1E0F0E08E0E9F1E08EE10E0F8014E
:100590008081877F8083B501C40153D2F8018081B7
:1005A0008E77808321E0711001C020E030E085016A
:1005B000021B130B280D391D442D4150672DC60118
:1005C000F6DE852D962D0FB6F8949EBF0FBE8DBF1B
:1005D00063C08091A001813A09F05EC0E8EEF0E0CE
:1005E0008081877F8083808180FFFDCFF6018185B8
:1005F0008093F100E8EEF0E080818E778083CCD3A9
:100600004BC08091A001813209F046C0E8EEF0E0D5
:100610008081877F8083C0D39091A20181E0911176
:1006200001C080E0F601818737C08091A00181324E
:1006300099F5E8EEF0E08081877F8083ADD38091EB
:10064000A2019091A30188270024880F991F001C04
:10065000880F991F001C892F902DF601958784879C
:100660001BC08091A001813AB9F4E8EEF0E08081EE
:10067000877F8083808180FFFDCFF601848595850B
:1006800096958795969587958093F100E8EEF0E032
:1006900080818E77808380D30FB6F894FEBE0FBE24
:1006A000EDBE0F900F900F90DF91CF911F910F91A2
:1006B000FF90EF90DF90CF90BF90AF909F908F9082
:1006C0007F906F905F904F903F9008959C01275FBF
:1006D0003F4FE22FF32F27E0DF011D922A95E9F724
:1006E00021E0FC01218724EF31E03587248723E0D6
:1006F000248361E00196E9C24F925F926F927F92EC
:100700008F929F92AF92BF92CF92DF92EF92FF9221
:100710000F931F93CF93DF9300D01F92CDB7DEB717
:100720007C01CDB6DEB680919F01843009F09AC07D
:100730008091E4009091E500F70122853385281728
:10074000390709F48FC081818F708093E90080910F
:10075000E80085FF87C06DB67EB640858DB79EB731
:10076000841B91090FB6F8949EBF0FBE8DBFADB626
:10077000BEB6E1E0F0E0AE0EBF1E1B821A82198207
:100780008A2C9B2C50E060E070E08A2D9B2DF5D5E3
:100790008E010F5F1F4F2A2D3B2D40E0BE016D5F84
:1007A0007F4FC701EFDD482EF70184859585892BA2
:1007B00049F001E010E086859785892B29F000E05B
:1007C00010E002C000E010E0F701A680B780A1149D
:1007D000B104B1F049815A81B501882D992DB7D561
:1007E000282F392F55245394232B09F4512CF7012A
:1007F000408550E0682D792D8A2D9B2DB5D501C0FF
:10080000512C89819A81892BF9F0411004C0511033
:1008100002C000FF19C0F7018485958597878687F8
:1008200081818F708093E9008B8181118093F10029
:1008300069817A8140E050E0882D992D2CD0E8EE36
:10084000F0E080818E7780838091E4009091E500D4
:10085000F70193878287862D972D0FB6F8949EBF58
:100860000FBE8DBF0FB6F894DEBE0FBECDBE0F908B
:100870000F900F90DF91CF911F910F91FF90EF900C
:10088000DF90CF90BF90AF909F908F907F906F90B0
:100890005F904F9008957F928F929F92AF92BF92F8
:1008A000CF92DF92EF92FF920F931F93CF93DF933C
:1008B0007C01EB015A0195D2782E81113FC0A11421
:1008C000B10439F0F50120813181C21BD30BE20E56
:1008D000F31E209799F100E010E00F2EF8EE8F2E16
:1008E000912CF02D0F2EF1EFCF2ED12CF02DF40105
:1008F000908195FD17C080818E7780830DD5A114DE
:10090000B10461F0F50180819181080F191F1183F5
:1009100000830F2EF5E07F2EF02D10C062D28823C9
:1009200049F00BC0F70181917F01F6018083219787
:100930000F5F1F4F2097D9F601C0782E872DDF91CA
:10094000CF911F910F91FF90EF90DF90CF90BF90CC
:10095000AF909F908F907F9008950F931F93CF93A8
:10096000DF932091A6013091A7012617370758F091
:100970006115710539F4E8EEF0E020812E772083CF
:100980009B0101C09B01E0E0A8EEB0E062EF70E0E7
:1009900011E000E0C1EFD0E032C040919F0144235C
:1009A00009F441C0453009F440C04C9143FD3FC0BB
:1009B0004C9142FD31C04C9140FF21C0FB01408170
:1009C00050E02115310599F04830510580F4E82FA9
:1009D000F92F819188838E2F9F2F215031094F5FEE
:1009E0005F4F2115310519F04830510591F7E12F7E
:1009F0004830510509F0E02F4C914E774C9321156A
:100A0000310559F6E111C9CF07C080919F018823B4
:100A100081F0853019F40FC0E8EEF0E0808182FFAC
:100A2000F4CF80E009C082E007C083E005C081E028
:100A300003C082E001C083E0DF91CF911F910F914D
:100A400008950F931F93CF93DF936115710529F4D8
:100A5000E8EEF0E020812B772083A8EEB0E002EFF3
:100A600010E021EF30E01CC040919F014423B1F120
:100A70004530B1F14C9143FD35C04C9142FFF4CF6C
:100A80003DC0E901888181938E2F9F2F61507109AC
:100A900021F0E80148814111F4CF4C914B774C9300
:100AA00061157105A1F040919F014423E9F04530A3
:100AB000E9F04C9143FD1CC04C9142FFD5CF1EC0C4
:100AC00080919F018823B1F0853019F415C0E8EEBC
:100AD000F0E0808180FFF4CF80E017C082E015C095
:100AE00083E013C081E011C082E00FC083E00DC03D
:100AF00081E00BC082E009C083E007C0F8014081BB
:100B0000442359F2E82FF92FBCCFDF91CF911F91E9
:100B10000F910895EF92FF921F93CF93DF9320914F
:100B2000A6013091A7012617370758F06115710506
:100B300039F4E8EEF0E020812E7720839B0101C09C
:100B40009B01E82FF92F60E0A8EEB0E042EF50E003
:100B500071E010E00F2EF1EFEF2EF12CF02D2EC0F2
:100B600080919F01882309F43DC0853009F43CC081
:100B70008C9183FD3BC08C9182FD2DC08C9180FFB8
:100B80001DC0EA01888190E02115310581F088308F
:100B9000910568F46491E701688331962150310929
:100BA00001962115310519F08830910599F7672FC5
:100BB000089709F0612F8C918E778C932115310560
:100BC00079F66111CDCF07C080919F01882381F014
:100BD000853019F40FC0E8EEF0E0808182FFF4CF99
:100BE00080E009C082E007C083E005C081E003C067
:100BF00082E001C083E0DF91CF911F91FF90EF90E1
:100C000008958F929F92BF92CF92DF92EF92FF92C0
:100C10000F931F93CF93DF93853070F126C0592F28
:100C20005F70E8015883891731F0E901D88050815D
:100C3000E401788103C05B2DD62E7C2D51FF12C0BC
:100C40004C914E7F4C9340814D7F40834C9141604D
:100C50004C93E901D8825083E4017883E7015881FD
:100C6000552344F49F5F9530D1F68F708093E9004F
:100C700081E01FC080E01DC0982F9F709093E90015
:100C8000982F542FD62E70E0ABEEB0E0EDEEF0E0F2
:100C90002CEE30E00F2EF0EF8F2E912CF02D0F2E3A
:100CA000FEEEEF2EF12CF02D09EE10E0B42EC12C4B
:100CB000C5CFDF91CF911F910F91FF90EF90DF9003
:100CC000CF90BF909F908F9008959F92AF92BF92C8
:100CD000CF92DF92EF92FF920F931F93CF93DF9308
:100CE000C62E662309F447C0EC018C010C5F1F4F30
:100CF000D12CB12C6894EE24E3F8F12C689499245B
:100D000091F80F2EF6E0AF2EF02D5881552359F1B2
:100D1000F8019081E981FA81D80111976C91852FB2
:100D20008F70853050F5923010F04A2D01C0492D5A
:100D3000E930F10548F097019B2D9F5F220F331F8B
:100D40002E173F07D0F301C09B2D9295907F492B22
:100D50006295660F660F607C551F5527551F652BE2
:100D600050DF882361F0D39425960B5F1F4FDC1072
:100D7000CCCF81E005C081E003C080E001C080E00D
:100D8000DF91CF911F910F91FF90EF90DF90CF9067
:100D9000BF90AF909F9008958091A0018823B4F4F4
:100DA00005C080919F01811103C00895E8EEF0E035
:100DB000808182FFF6CFE8EEF0E080818B77808340
:100DC000089580919F01811103C00895E8EEF0E03D
:100DD000808180FFF6CFE8EEF0E080818E7780831F
:100DE00008950F931F93CF93DF932091E4003091E8
:100DF000E50065E6ACEEB0E0E8EEF0E00BEE10E00A
:100E000044EE50E08C9180FD20C023C080919F0172
:100E1000882389F0853089F0E801888185FD0FC03D
:100E2000EA01888199812817390761F361509C0193
:100E300049F784E012C082E010C083E00EC081E078
:100E40000CC080E00AC080E008C0808180FFDECF57
:100E5000F8CF808182FFDACFF6CFDF91CF911F915B
:100E60000F9108953BD03DD0E8EDF0E080818F7781
:100E7000808380818068808380818F7D808384E00F
:100E800089BD86E089BD09B400FEFDCF10929F01A7
:100E900010929B0110929D0110929C0142E060E033
:100EA00080E0AFDEE1EEF0E080818E7F8083E2EED5
:100EB000F0E0808181608083808188608083E0EEC3
:100EC000F0E080818E7F80830895E3E6F0E080810A
:100ED0008E7F808381E080939E01C4CF1092E200D8
:100EE00008951092E10008951F920F920FB60F928D
:100EF00011242F933F934F935F936F937F938F931F
:100F00009F93AF93BF93EF93FF938091E10082FF94
:100F10000AC08091E20082FF06C0E1EEF0E080812D
:100F20008B7F808323DA8091E10080FF15C0809160
:100F3000E20080FF11C0E2EEF0E080818E7F8083CE
:100F4000808180618083E8EDF0E080818062808331
:100F500019BC10929F01FDD98091E10084FF2FC040
:100F60008091E20084FF2BC084E089BD86E089BDCA
:100F700009B400FEFDCFE8EDF0E080818F7D808335
:100F8000E1EEF0E080818F7E8083E2EEF0E0808110
:100F90008F7E808380818160808380919B01882304
:100FA00021F084E080939F0109C08091E3008823B1
:100FB00014F483E001C081E080939F01C9D980913E
:100FC000E10083FF1EC08091E20083FF1AC0E1EEC2
:100FD000F0E08081877F808382E080939F01109280
:100FE0009B0180818E7F8083E2EEF0E080818E7FA6
:100FF000808380818061808342E060E080E001DE68
:101000008AD1FF91EF91BF91AF919F918F917F9185
:101010006F915F914F913F912F910F900FBE0F9065
:101020001F9018950F931F93CF93DF93CDB7DEB723
:10103000AC970FB6F894DEBF0FBECDBFE0EAF1E08B
:10104000A1EFB0E08C91819321E0E83AF207D1F76B
:101050008AD98091E80083FF39C19091A0018091E5
:10106000A101853009F481C038F48130D1F170F0EC
:10107000833009F02BC135C0883009F4F5C08930C0
:1010800009F402C1863009F021C196C0903821F0E0
:10109000923809F01BC108C080919C0190919D017C
:1010A000992389F082600FC08091A4019091A501DD
:1010B0008F709927E9EEF0E080838091EB0085FB4B
:1010C000882780F91082E8EEF0E09081977F908386
:1010D000A1EFB0E08C931C9280818E7780835CDEE0
:1010E000F5C0992309F401C1923009F0EFC002C1A3
:1010F00091E0833009F090E090939D012DC08091A4
:10110000A4019091A5018F709927882309F4DEC06E
:101110008093E9002091EB0020FF1EC02091A101E7
:10112000233031F4EBEEF0E080818062808314C0E4
:10113000EBEEF0E090819061908321E030E0A90136
:1011400002C0440F551F8A95E2F7AAEEB0E04C9317
:101150001C928081886080831092E900E8EEF0E0C4
:101160008081877F808318DEB1C09111AFC08091EC
:10117000A2019091A3018F779927182FE3EEF0E059
:1011800090819078892B8083E8EEF0E08081877FE2
:10119000808302DEE8EEF0E0808180FFFDCFE3EEA9
:1011A000F0E0808180688083112311F083E001C02A
:1011B00082E080939F018AC09058923008F086C0E8
:1011C0008091A2019091A3018C3D53E0950799F580
:1011D00083E08A838AE289835FB7F894DE011396FD
:1011E00020E03EE041E2E32FF0E04093570084919D
:1011F00020FF03C082958F703F5F8F708A3018F098
:1012000090E0C79602C090E0C0968D939D932F5FAB
:10121000243149F75FBF08EE10E0F8018081877F35
:1012200080836AE270E0CE01019697DBF80180814D
:101230008B7780834BC0AE01455D5F4F6091A40109
:101240000E94AE00009709F441C008EE10E0F801DA
:101250002081277F2083BC018BA59CA55BDCF80146
:1012600080818B77808332C0903881F5E8EEF0E0A2
:101270008081877F808380919B018093F1008081B2
:101280008E77808389DD22C0911120C08091A201D8
:101290008230E0F4E8EEF0E08081877F8083809107
:1012A000A20180939B0178DD80919B01882321F02E
:1012B00084E080939F0109C08091E300882314F4A7
:1012C00084E001C081E080939F0144D88091E800D0
:1012D00083FF16C0E8EEF0E08081877F8083EBEE2D
:1012E000F0E08081806280830BC09091A2019130F8
:1012F00069F7FECE8091A201882309F400CF2CCF9C
:10130000AC960FB6F894DEBF0FBECDBFDF91CF9184
:101310001F910F9108950895CF9380919F01882385
:10132000A1F0C091E900CF708091EC0080FF02C075
:1013300080E801C080E0C82B1092E9008091E800AD
:1013400083FD70DECF70C093E900CF910895FB015B
:10135000DC0104C08D910190801921F4415050406E
:10136000C8F7881B990B0895FB01DC0102C00190AE
:101370000D9241505040D8F70895DC0101C06D93A3
:0C13800041505040E0F70895F894FFCF72
:10138C0000810800000110010300000000000000B3
:00000001FF
