S0140000434C4153535F4D4F555345332E737265637F
S113000094C00000AFC00000ADC00000ABC0000051
S1130010A9C00000A7C00000A5C00000A3C0000044
S1130020A1C000009FC00000BBC500009BC0000031
S113003099C0000097C0000095C0000093C0000064
S113004091C000008FC000008DC000008BC0000074
S113005089C0000087C0000085C0000083C0000084
S113006081C000004BC100007DC000007BC00000C7
S113007079C0000077C0000075C0000073C00000A4
S113008071C000006FC000006DC000006BC00000B4
S113009069C0000067C0000014034D006F007500C4
S11300A073006500200030002E00310000001003B2
S11300B0410072006400750069006E006F0000006A
S11300C00403090409022200010100C064090400B8
S11300D0000103010200092111010001223200077D
S11300E005810308000A1201100100000008EB0357
S11300F0412000000102000105010902A1010901DA
S1130100A1009503750105091901290315002501AD
S11301108102950175058101750895020501093073
S113012009311581257F8106C0C011241FBECFEF80
S1130130D0E2DEBFCDBF11E0A0E0B1E0EEE8F0E137
S113014000E00BBF02C007900D92A031B107D9F7B0
S113015021E0A0E1B1E001C01D92A83AB207E1F7A5
S113016027D093C74DCFCF93DF9384B7877F84BFC6
S113017028E10FB6F89420936000109260000FBE3F
S113018087E690E09093CD008093CC0086E0809346
S1130190CA001092C800C9ECD0E02883539A5A9A36
S11301A0E4D484E085BD88E98883DF91CF91089504
S11301B0CF93DF9300D01F92CDB7DEB7D4DF2FB734
S11301C0F89486E191E0909397018093960190933F
S11301D09901809398012FBF78940AE911E06E0188
S11301E024E0C20ED11C0F2EF8E9EF2EF1E0FF2E11
S11301F0F02D4C010F2EF0E1AF2EF1E0BF2EF02DCB
S11302000F2EF1E16F2EF1E07F2EF02D0F2EF2E193
S11302104F2EF1E05F2EF02D9FB7F894D8018C910A
S11302209FBF8430D0F1AE014F5F5F4FD701ED9196
S1130230FC9111978191ED93FC93E659F14019F4E7
S1130240F701918280829FB7F894D8012C912150B4
S11302502C939FBFFA018193AF01EC15FD0531F793
S1130260D7018D919C91119701968D939C938659FA
S1130270914019F4F701918280828FB7F894D801E4
S11302809C9191509C938FBF8981F50180838A81D1
S1130290D3018C938B81F201808380E091E0D3D0F1
S11302A0BCD6BACF0895089580E091E0B6D0E2EECE
S11302B0F0E0808184608083089580910E019091A4
S11302C00F01009729F0019790930F0180930E017D
S11302D008950F931F938091100190911101A091A3
S11302E01201F90180839183A28383E090E0F801F5
S11302F09183808380E01F910F9108951F920F9244
S11303000FB60F9211240BB60F922F938F939F93D6
S1130310AF93BF93EF93FF939091CE0080919F0191
S11303208430D9F4E6E9F1E0A081B1819C93808125
S113033091810196918380838E179F0731F486E122
S113034091E090939701809396018FB7F894EAE92E
S1130350F1E090819F5F90838FBFFF91EF91BF91F8
S1130360AF919F918F912F910F900BBE0F900FBE65
S11303700F901F901895292F332723303105C9F08A
S113038044F42130310509F439C02230310539F4FF
S11303900BC02132310541F12232310551F120E007
S11303A030E080E090E033C022E230E084EC90E082
S11303B02EC099278130910559F08230910571F052
S11303C0892B09F5E0ECF0E0249130E0CF011FC067
S11303D0EEEAF0E0249130E0CF0119C0E8E9F0E062
S11303E0249130E0CF0113C029E030E086ED90E0A5
S11303F00EC022E330E088EF90E009C022E130E053
S113040086EE90E004C020E030E080E090E0FA0165
S113041091838083822F932F08959C01275F3F4F00
S1130420E22FF32F27E0DF011D922A95E9F721E05F
S1130430FC01218724EF31E03587248723E02483DE
S113044061E0019680C24F925F926F927F928F9289
S11304509F92AF92BF92CF92DF92EF92FF920F934F
S11304601F93CF93DF9300D01F92CDB7DEB77C01EB
S1130470CDB6DEB680919F01843009F09AC0809198
S1130480E4009091E500F7012285338528173907A8
S113049009F48FC081818F708093E9008091E80016
S11304A085FF87C06DB67EB640858DB79EB7841B29
S11304B091090FB6F8949EBF0FBE8DBFADB6BEB600
S11304C0E1E0F0E0AE0EBF1E1B821A8219828A2C74
S11304D09B2C50E060E070E08A2D9B2DCFD58E01DF
S11304E00F5F1F4F2A2D3B2D40E0BE016D5F7F4FF4
S11304F0C701EFDE482EF70184859585892B49F0E5
S113050001E010E086859785892B29F000E010E052
S113051002C000E010E0F701A680B780A114B10486
S1130520B1F049815A81B501882D992D91D5282F93
S1130530392F55245394232B09F4512CF70140856A
S113054050E0682D792D8A2D9B2D8FD501C0512C1B
S113055089819A81892BF9F0411004C0511002C09D
S113056000FF19C0F7018485958597878687818167
S11305708F708093E9008B8181118093F1006981F0
S11305807A8140E050E0882D992D2CD0E8EEF0E0FF
S113059080818E7780838091E4009091E500F7015B
S11305A093878287862D972D0FB6F8949EBF0FBE32
S11305B08DBF0FB6F894DEBE0FBECDBE0F900F9068
S11305C00F90DF91CF911F910F91FF90EF90DF90EB
S11305D0CF90BF90AF909F908F907F906F905F90DF
S11305E04F9008957F928F929F92AF92BF92CF9235
S11305F0DF92EF92FF920F931F93CF93DF937C01CF
S1130600EB015A012CD2782E81113FC0A114B10400
S113061039F0F50120813181C21BD30BE20EF31EA8
S1130620209799F100E010E00F2EF8EE8F2E912C18
S1130630F02D0F2EF1EFCF2ED12CF02DF40190815F
S113064095FD17C080818E778083E7D4A114B1040F
S113065061F0F50180819181080F191F11830083D6
S11306600F2EF5E07F2EF02D10C0F9D1882349F02C
S11306700BC0F70181917F01F601808321970F5F01
S11306801F4F2097D9F601C0782E872DDF91CF9187
S11306901F910F91FF90EF90DF90CF90BF90AF909C
S11306A09F908F907F9008950F931F93CF93DF9324
S11306B02091A6013091A7012617370758F061153C
S11306C0710539F4E8EEF0E020812E7720839B0158
S11306D001C09B01E0E0A8EEB0E062EF70E011E041
S11306E000E0C1EFD0E032C040919F01442309F4FF
S11306F041C0453009F440C04C9143FD3FC04C918A
S113070042FD31C04C9140FF21C0FB014081518129
S11307102115310599F04830510580F4E82FF92F5F
S1130720819188838E2F9F2F215031094F5F5F4F16
S11307302115310519F04830510591F7E12F483062
S1130740510509F0E02F4C914E774C93211531055A
S113075059F6E111C9CF07C080919F01882381F028
S1130760853019F40FC0E8EEF0E0808182FFF4CF09
S113077080E009C082E007C083E005C081E003C0D7
S113078082E001C083E0DF91CF911F910F91089522
S1130790EF92FF921F93CF93DF932091A6013091A4
S11307A0A7012617370758F06115710539F4E8EEEB
S11307B0F0E020812E7720839B0101C09B01E82F6C
S11307C0F92F60E0A8EEB0E042EF50E071E010E0F5
S11307D00F2EF1EFEF2EF12CF02D2EC080919F0102
S11307E0882309F43DC0853009F43CC08C9183FD15
S11307F03BC08C9182FD2DC08C9180FF1DC0EA010D
S1130800888199812115310581F08830910568F43A
S11308106491E701688331962150310901962115CD
S1130820310519F08830910599F7672F089709F079
S1130830612F8C918E778C932115310579F6611196
S1130840CDCF07C080919F01882381F0853019F4B2
S11308500FC0E8EEF0E0808182FFF4CF80E009C0B1
S113086082E007C083E005C081E003C082E001C0EC
S113087083E0DF91CF911F91FF90EF9008958F92C5
S11308809F92BF92CF92DF92EF92FF920F931F93AA
S1130890CF93DF93873070F126C0592F5F70E80142
S11308A05883891731F0E901D8805081E4017881B7
S11308B003C05B2DD62E7C2D51FF12C04C914E7F70
S11308C04C9340814D7F40834C9141604C93E901AE
S11308D0D8825083E4017883E7015881552344F496
S11308E09F5F9730D1F68F708093E90081E01FC03D
S11308F080E01DC0982F9F709093E900982F542F8B
S1130900D62E70E0ABEEB0E0EDEEF0E02CEE30E091
S11309100F2EF0EF8F2E912CF02D0F2EFEEEEF2EDA
S1130920F12CF02D09EE10E0B42EC12CC5CFDF91CF
S1130930CF911F910F91FF90EF90DF90CF90BF90D8
S11309409F908F9008959F92AF92BF92CF92DF9223
S1130950EF92FF920F931F93CF93DF93C62E6623DC
S113096009F447C0EC018C010C5F1F4FD12CB12C52
S11309706894EE24E3F8F12C6894992491F80F2EEE
S1130980F6E0AF2EF02D6881662359F1F8019081CD
S1130990E981FA81D80111975C91862F8F70873095
S11309A050F5923010F04A2D01C0492DE930F1057F
S11309B048F097019B2D9F5F220F331F2E173F078F
S11309C0D0F301C09B2D9295907F492BF0E45F9F5B
S11309D090011124661F6627661F622B50DF88234F
S11309E061F0D39425960B5F1F4FDC10CCCF81E0D0
S11309F005C081E003C080E001C080E0DF91CF91B9
S1130A001F910F91FF90EF90DF90CF90BF90AF9028
S1130A109F9008958091A0018823B4F405C080912B
S1130A209F01811103C00895E8EEF0E0808182FF08
S1130A30F6CFE8EEF0E080818B7780830895809193
S1130A409F01811103C00895E8EEF0E0808180FFEA
S1130A50F6CFE8EEF0E080818E77808308950F93DF
S1130A601F93CF93DF932091E4003091E50065E676
S1130A70ACEEB0E0E8EEF0E00BEE10E044EE50E057
S1130A808C9180FD20C023C080919F01882389F030
S1130A90853089F0E801888185FD0FC0EA018881ED
S1130AA099812817390761F361509C0149F784E063
S1130AB012C082E010C083E00EC081E00CC080E070
S1130AC00AC080E008C0808180FFDECFF8CF80813B
S1130AD082FFDACFF6CFDF91CF911F910F91089566
S1130AE00F931F93CF93DF934ED055D0C8EDD0E032
S1130AF088818F77888388818068888388818F7DC7
S1130B008883E7EDF0E080818068808319BC1092CF
S1130B109F0110929B0110929D0110929C0100EE86
S1130B2010E0F80180818B7F8083888181608883D5
S1130B3042E060E080E0A3DEE1EEF0E080818E7FC1
S1130B408083E2EEF0E08081816080838081886030
S1130B508083F80180818E7F80838881806188838F
S1130B60DF91CF911F910F910895E8EDF0E080811E
S1130B708F7E8083E7EDF0E080818160808381E077
S1130B8080939E01ADCFE8EDF0E080818C7F80837F
S1130B901092E20008951092DA001092E100089594
S1130BA01F920F920FB60F9211240BB60F922F9330
S1130BB03F934F935F936F937F938F939F93AF93E1
S1130BC0BF93EF93FF938091E10082FF0AC080916D
S1130BD0E20082FF06C0E1EEF0E080818B7F80833B
S1130BE06CDB8091DA0080FF1DC08091D80080FF0B
S1130BF019C0EAEDF0E080818E7F80838091D90076
S1130C0080FF0CC084E189BD86E189BD09B400FE82
S1130C10FDCF81E080939F0145DB04C019BC109295
S1130C209F0141DB8091E10080FF16C08091E200CA
S1130C3080FF12C0E2EEF0E080818E7F80838081AD
S1130C4080618083E8EDF0E080818062808319BC5C
S1130C5085E080939F01E0D18091E10084FF2FC063
S1130C608091E20084FF2BC084E189BD86E189BDC7
S1130C7009B400FEFDCFE8EDF0E080818F7D808334
S1130C80E1EEF0E080818F7E8083E2EEF0E080810F
S1130C908F7E808380818160808380919B01882303
S1130CA021F084E080939F0109C08091E3008823B0
S1130CB014F483E001C081E080939F01ADD1809161
S1130CC0E10083FF1EC08091E20083FF1AC0E1EEC1
S1130CD0F0E08081877F808382E080939F0110927F
S1130CE09B0180818E7F8083E2EEF0E080818E7FA5
S1130CF0808380818061808342E060E080E0BFDDAA
S1130D008BD1FF91EF91BF91AF919F918F917F9183
S1130D106F915F914F913F912F910F900BBE0F9068
S1130D200FBE0F901F9018950F931F93CF93DF93CF
S1130D30CDB7DEB7AC970FB6F894DEBF0FBECDBF0C
S1130D40E0EAF1E0A1EFB0E08C91819321E0E83A90
S1130D50F207D1F761D18091E80083FF38C1909107
S1130D60A0018091A101853009F481C038F481305B
S1130D70D1F170F0833009F02AC135C0883009F40C
S1130D80F4C0893009F401C1863009F020C196C04D
S1130D90903821F0923809F01AC108C080919C0162
S1130DA090919D01992389F082600FC08091A401E4
S1130DB09091A5018F709927E9EEF0E080838091EE
S1130DC0EB0085FB882780F91082E8EEF0E0908143
S1130DD0977F9083A1EFB0E08C931C9280818E77F3
S1130DE0808318DEF4C0992309F400C1923009F01D
S1130DF0EEC001C191E0833009F090E090939D0131
S1130E002DC08091A4019091A5018F70992788230A
S1130E1009F4DDC08093E9002091EB0020FF1EC09F
S1130E202091A101233031F4EBEEF0E08081806267
S1130E30808314C0EBEEF0E090819061908321E018
S1130E4030E0A90102C0440F551F8A95E2F7AAEECB
S1130E50B0E04C931C928081886080831092E900FA
S1130E60E8EEF0E08081877F8083D4DDB0C091110B
S1130E70AEC08091A2019091A3018F779927182F7A
S1130E80E3EEF0E090819078892B8083E8EEF0E047
S1130E908081877F8083BEDDE8EEF0E0808180FF83
S1130EA0FDCFE3EEF0E0808180688083112311F0B0
S1130EB083E001C082E080939F0189C09058923002
S1130EC008F085C08091A2019091A3018C3D53E06C
S1130ED0950799F583E08A838AE289835FB7F8945A
S1130EE0DE01139620E03EE041E2E32FF0E0409380
S1130EF05700849120FF03C082958F703F5F8F70ED
S1130F008A3018F090E0C79602C090E0C0968D93A6
S1130F109D932F5F243149F75FBF08EE10E0F8017D
S1130F208081877F80836AE270E0CE010196BCDB1A
S1130F30F80180818B7780834AC0AE01455D5F4FA5
S1130F406091A40118DA009709F441C008EE10E09A
S1130F50F8012081277F2083BC018BA59CA518DC88
S1130F60F80180818B77808332C0903881F5E8EE78
S1130F70F0E08081877F808380919B018093F100E2
S1130F8080818E77808346DD22C0911120C08091BC
S1130F90A2018230E0F4E8EEF0E08081877F808374
S1130FA08091A20180939B0135DD80919B01882370
S1130FB021F084E080939F0109C08091E30088239D
S1130FC014F484E001C081E080939F016DD9809185
S1130FD0E80083FF16C0E8EEF0E08081877F80831D
S1130FE0EBEEF0E08081806280830BC09091A201DF
S1130FF0913069F7FFCE8091A201882309F401CFD3
S11310002DCFAC960FB6F894DEBF0FBECDBFDF91E7
S1131010CF911F910F9108950895CF9380919F01CF
S11310208823A1F0C091E900CF708091EC0080FF8B
S113103002C080E801C080E0C82B1092E9008091D2
S1131040E80083FD71DECF70C093E900CF9108956D
S1131050FB01DC0104C08D910190801921F4415001
S11310605040C8F7881B990B0895FB01DC0102C0AE
S113107001900D9241505040D8F70895DC0101C011
S11110806D9341505040E0F70895F894FFCF6F
S113108E0000000000001301030000000000000037
S9030000FC
